:020000040800F2
:10000000A8080020890100085529000805190008E2
:100010005129000861020008FD29000800000000C5
:100020000000000000000000000000005D29000842
:100030006D0300080000000059290008612900082C
:10004000A3010008A3010008A3010008A301000800
:10005000A3010008A3010008A3010008A3010008F0
:10006000A3010008A3010008A3010008A3010008E0
:10007000A3010008A3010008A3010008A3010008D0
:10008000A3010008A3010008A3010008A3010008C0
:10009000A3010008A3010008A3010008A3010008B0
:1000A000A3010008E5290008A3010008A301000836
:1000B000A3010008F1290008A3010008A30100081A
:1000C000A3010008A3010008A3010008A301000880
:1000D000A3010008A3010008A3010008A301000870
:1000E000A3010008A3010008A301000800F002F822
:1000F00000F03AF80AA090E8000C82448344AAF188
:100100000107DA4501D100F02FF8AFF2090EBAE885
:100110000F0013F0010F18BFFB1A43F0010318473B
:10012000CC3F0000EC3F0000103A24BF78C878C1F3
:10013000FAD8520724BF30C830C144BF04680C60ED
:10014000704700000023002400250026103A28BF35
:1001500078C1FBD8520728BF30C148BF0B60704739
:100160001FB51FBD10B510BD00F044F81146FFF7D4
:10017000F7FF02F045FC00F062F803B4FFF7F2FF6E
:1001800003BC00F065F800000948804709480047B3
:10019000FEE7FEE7FEE7FEE7FEE7FEE7FEE7FEE737
:1001A000FEE7FEE704480549054A064B7047000094
:1001B000E1290008ED000008A8020020A80800209E
:1001C000A8040020A804002070477047704710B5AD
:1001D00000F008F8006810BD10B5044600F002F801
:1001E000046010BD00487047A00000200048704720
:1001F000A00000207546FFF7F9FFAE4605006946EE
:10020000534620F00700854618B020B5FFF7CAFF17
:10021000BDE820404FF000064FF000074FF0000807
:100220004FF0000BAC46ACE8C009ACE8C009ACE844
:10023000C009ACE8C00921F007018D46704710B530
:100240000446AFF300802046BDE81040FFF795BF9D
:1002500001491820ABBEFEE72600020070470000EF
:10026000FEE700002DE9F04F8BB00490002000273E
:1002700000244FF000094FF0000B4FF0000A4FF040
:10028000000800BF0DF11E01CDE9050400910E210B
:1002900040F278100191C2F20000D0213B220123EC
:1002A0006426029600F050FABDF81E00BDF820202A
:1002B00090FA80FC049C4FEA1C41A18111BABDF860
:1002C00022300A0CE2811ABABDF82660130CBDF880
:1002D0002850238233BA1E0C28BABDF82A5026862D
:1002E000060C66862EBA350CA586069C08EB2C48B3
:1002F00004EB204405980AEB214A0BEB224B09EB57
:10030000234907EB2647632800F10100BAD348F2DE
:100310001F50C5F2EB1088FB00128AFB001C8BFB00
:10032000001389FB001584FB001687FB00015009B0
:1003300000EBD270049A10804FEA5C1000EBDC7086
:100340005080580900EBD370A0F580409080680978
:1003500000EBD570D080700900EBD6701081480991
:1003600000EBD17050810BB0BDE8F08F70470000FA
:10037000EFF3108072B600BFFEE70000B0B5044690
:1003800000F020F9054640F20000C2F200000078BB
:10039000611C18BF044400BF00F014F9401BA042C8
:1003A000FAD3B0BD2DE9F04F82B041F20042C4F261
:1003B00001020E680423904208BF0323002E00931D
:1003C00000F0F68040F20C4E4FF6FF7CC4F2010EB6
:1003D00000220124C1F2100C4FF0000A4FF0000976
:1003E00043E000BF012502F00C040F27A7402BEAD1
:1003F000070705FA04F43C4343F82640D1F804B05B
:1004000040F20045C4F201055FEACB332B6854BFCC
:1004100023EA080343EA08032B606B685FEA8B3426
:1004200054BF23EA080343EA08036B605FEACB2466
:10043000AB6854BF23EA080343EA08035FEA8B244E
:10044000AB60DEF800304FF0010454BF23EA08032C
:1004500043EA0803CEF800300E680AF1010A36FAC2
:100460000AF302F1040200F0A38004FA0AF816EA83
:10047000080FF1D04B68634512DC122B56D8DFE829
:1004800003F0350B45495555555555555555555559
:100490005555554D510000BFD1F80C9046E000BFB6
:1004A0004FF6FF77C1F22107BB420FDC0027C1F2F4
:1004B0001107BB421AD00027C1F21207BB4215D068
:1004C0000027C1F22107BB4210D02FE00027C1F264
:1004D0002207BB420AD00027C1F23107BB4205D038
:1004E0000027C1F23207BB4220D100BF8B684BB15D
:1004F000012B14BFC0F81480C0F810804FF0080919
:1005000014E000BF4FF0040910E000BFCB6803F116
:1005100008090BE04FF0000908E000BFCB6803F1C9
:10052000040903E0CB6803F10C0900BF134605463C
:10053000BAF1080F24BF203B04352E680F279F40D7
:10054000BE4309FA03F333432B60CB79DB067FF517
:1005500083AF41F21804C4F2020423684FEA9A06FA
:1005600043F001032360236840F6000403F0010315
:100570000193019B40F20043C4F20103A3F57E7393
:1005800053F826B0C4F20104A0420FD040F6004454
:10059000C4F20104A0423FF425AF41F20004C4F2CA
:1005A0000104009DA04208BF02251CE700251AE7B0
:1005B00002B0BDE8F08F0000002A08BF0904016105
:1005C0007047000040F2A420C2F2000000687047AB
:1005D00070B5B8B3044690F83D0028B9002084F8FF
:1005E0003C00204600F0BAFB242084F83D0020683F
:1005F000016821F001010160016841F400410160DE
:10060000016821F40041016000F0E4FD48F28041FE
:10061000C0F21E0140F60013D4F804E088424FF007
:100620000001C0F23D0348F2A16C4FF0000238BF58
:1006300001219842C0F2010C38BF0122E64538BFC3
:100640000A460AB1012070BD4DF68361C4F21B3128
:10065000A0FB01122168950C4B684FF4967623F0AD
:100660003F0343EA9243754344F6D3564B60C1F2CD
:1006700062060B6AA5FB0656B50923F03F03E64563
:1006800038BF950C6A1C1A430A62CA6948F2A06610
:100690004CF6FF73C0F20106B64522EA03020BD8FE
:1006A00001384FEA4E03B0FBF3F001306FF31F3017
:1006B000042898BF04201EE0A368013863B1192301
:1006C0000EFB03F3B0FBF3F001306FF31F3078B192
:1006D00000F5804008E000BF0EEB4E03B0FBF3F0E6
:1006E00001306FF31F3028B100F5004003E000BF78
:1006F000012000E001201043C8610868D4E9072305
:1007000020F0C000104318430860886848F2FF32A8
:1007100004F10C0690434CCE18431043A569886041
:10072000C86820F0FF0030432843C860086840F0E4
:100730000100086000202021206484F83D1020631F
:1007400084F83E0070BD00002DE9F04F85B00446EE
:1007500000201E4617460D460490FFF733FF94F81D
:100760003D10202923D1804620688169890719D549
:10077000FFF728FFA0EB08001928F5D90020202159
:10078000206384F83D1084F83E00206C04F13C099D
:1007900040F0200020640220002189F8001005B0FC
:1007A000BDE8F08FA14619F83C1F012904D10220B1
:1007B00005B0BDE8F08F00BF012289F80020036872
:1007C000DDE90F1A0E9ADB0703D1036843F001033A
:1007D0000360036823F400630360222084F83D0073
:1007E000402084F83E000020206462626185608DB4
:1007F000294620850020CFF6FF70E06220463A4669
:100800003346CDF800A0CDF8048001F07DF818B192
:10081000012005B0BDE8F08F208D022810D00128FE
:1008200024D0002838D1002003902068416903912A
:10083000816903910399016841F40071016037E017
:100840002068016841F400610160EFF3108072B626
:100850000020039020684169039181690391039905
:10086000016821F48061016062B621E020680168BE
:1008700021F480610160EFF3108072B600200390D4
:10088000206841690391816903910399016841F4EA
:100890000071016062B60BE02068016841F480617C
:1008A00001600021039141690391806903900398DD
:1008B000208D002800F0238140F2980B4BF28957DD
:1008C0000AF10105C2F2000BC1F2F847232680B2FB
:1008D000032819D8022845D001286FD1BAF1000F9A
:1008E00000F0FA802068014651F8142F520600F1FA
:1008F000F7800868C00600F12F81FFF763FEA0EBC8
:1009000008005045EED91CE1BAF1000F12D000BF2B
:100910002068014651F8142F520610D40868C0060A
:1009200000F11A81FFF74EFEA0EB08005045EFD909
:1009300007E100BF20684169490640F1FB8000697A
:10094000616A0870606A2268411C208D616201380A
:100950002085638D013B638553695B0740F1CC8043
:100960001069BFE020684169490711D4002D00F0EB
:100970009380BAF1000F00F0E280FFF723FEA0EBB6
:100980000800504500F2DD80206840694007F4D53A
:10099000EFF3108072B62068616A026842F4007258
:1009A000026000690870606A218D01306062481E33
:1009B0002085608D0138608562B668E020684169F5
:1009C000490710D4002D77D0BAF1000F00F0B7809E
:1009D000FFF7F8FDA0EB0800504500F2B280206858
:1009E00041694907F4D5016821F480610160EFF3A2
:1009F000108072B62068616A00690870606A218D93
:100A00000130013960622185618D01396185DBF832
:100A10000010C908A1FB0712110A7143049104993F
:100A2000013904910499002976D021684A69520756
:100A30001DD4049901390491049900296CD02168CE
:100A40004A69520713D40499013904910499002981
:100A500062D021684A69520709D404990139049186
:100A60000499002958D021684A695207D7D50A68E5
:100A700042F400720A6009690170606A218D0130D8
:100A80006062481E2085608D0138608562B62068EE
:100A9000616A006926E000BF416949073FF578AF08
:100AA000416949075CBF41695FEA41713FF570AF39
:100AB00041694907F0D56BE74169490793D441691A
:100AC00049075CBF41695FEA41713FF58CAF4169FD
:100AD0004907F1D587E700BF20684169490629D554
:100AE0000069616A0870606A218D01306062481E89
:100AF0002085618D0139618501047FF4E8AE2020F5
:100B000084F83D00002084F83E00002189F80010A0
:100B100005B0BDE8F08F00BF00202021206384F8DD
:100B20003D1084F83E00206C40F02000206462B646
:100B30001EE000BF50F8141FC90601460CD4FFF791
:100B400041FD00202021206384F83D1084F83E0000
:100B5000206C40F020000AE06FF0100008600020D8
:100B60002021206384F83D1084F83E00206C20642E
:100B70000120002189F8001005B0BDE8F08F0000C9
:100B80002DE9F04383B0994616460F460446FFF719
:100B900019FD94F83D1020291CD105462068816973
:100BA000890713D5FFF70EFD401B1928F6D9002041
:100BB0002021206384F83D1084F83E00216C41F030
:100BC0002001216484F83C0004E000BF94F83C104C
:100BD000012903D1022003B0BDE8F083012284F88B
:100BE0003C200368DDE90B180A9ADB0703D1036890
:100BF00043F001030360036823F4006303602120D2
:100C000084F83D00402084F83E00002020646262A9
:100C10006185608D394620850020CFF6FF70E06247
:100C2000204632464B46CDF80080019500F0FCFF8F
:100C300020B1012003B0BDE8F08300BF208D002863
:100C400050D0206808F10106014651F8142F120611
:100C50002CD49EB1B8F1000F5AD000BF08684005EF
:100C60005ED4FFF7AFFC401B404556D820680146D4
:100C700051F8142F1206F1D518E000BF0A6852058A
:100C80004ED40A68120611D40A68520548D40A687C
:100C900012060BD40A68520542D40A68120605D41B
:100CA0000A6852053CD40A681206E7D5626A114602
:100CB00011F8013B0361238D6162591E2185678D07
:100CC000013F678547697F070AD50F0408D051782F
:100CD0000161911C6162991E2185628D013A6285D4
:100CE0000904B1D1204641462A4601F0D7F838BB65
:100CF0002068016841F400710160202084F83D0003
:100D0000002084F83E0084F83C0003B0BDE8F08386
:100D10000868400504D4FFF755FC202004E000BF1C
:100D20006FF480600860042000212022216384F891
:100D30003D2084F83E10226C1043206484F83C105F
:100D4000206C04287FF475AF2068016841F40071BD
:100D50000160012003B0BDE8F083000010B586B04B
:100D600045F200410068C4F200010022884204926A
:100D700002D006B010BD00BF41F21804C4F2020454
:100D8000206840F008002060206800F00800019012
:100D90000198C0200290122003900320059001F5D5
:100DA000384002A9FFF7FEFA606840F40010606066
:100DB000606800F400100190019806B010BD0000BA
:100DC00040F2000040F2A421C2F20000C2F2000191
:100DD00000780A68104408607047000080B542F24D
:100DE0000000C4F20200016841F01001016003201C
:100DF00000F07AF80F2000F005F800F027F8002046
:100E000080BD000070B540F20006C2F2000640F25C
:100E100098013278C2F200014FF47A730968B3FB8B
:100E2000F2F20446B1FBF2F1084600F0D5FB0F2CBC
:100E30004FF0010508D838B94FF0FF3021460022A5
:100E4000002500F025F87460284670BD82B041F29C
:100E50001800C4F202000168022241F001010160A1
:100E6000016801F0010101910199416841F080514F
:100E70004160406800F08050009000980420C4F267
:100E80000100016862F31A61016002B0704700005E
:100E900010B54EF60C5CCEF2000CDCF80030C3F35B
:100EA000022E8EF00704042C28BF0424BEF1030395
:100EB0004FF0FF3E0EFA04F438BF0023A1439940DF
:100EC0000EFA03F39A43114300F00F02043A62440E
:100ED00009010C3200F16043B0F1FF3FC8BF03F5D8
:100EE0006442117010BD00004EF60C51CEF20001AC
:100EF0000A684FF6FF031A4060F30A2242F080604E
:100F000040F0FD70086070472DE9F04182B0044662
:100F1000007841F21C06C007C4F202064AD03068CD
:100F200010F0805808D1306840F080503060306850
:100F300000F080500190019847F20007C4F20007CA
:100F40003868C00512D4386840F480703860FFF704
:100F500039FB05463868C00508D4FFF733FB401B52
:100F60006428F7D9032002B0BDE8F081706810F45E
:100F7000407012D0616801F4407188420DD07068F1
:100F800040F24042C4F24222012320F44071136037
:100F90000023C007136071602AD17068616820F473
:100FA00040700843B8F1000F706003D1306820F042
:100FB000805030602068810707D556F8181CA26859
:100FC00021F44041114346F8181CC00604D4002007
:100FD00002B0BDE8F08100BF56F8180CE16820F4BB
:100FE0008000084346F8180C002002B0BDE8F081EC
:100FF000FFF7E8FA054641F2883700BF70688007BE
:10100000CBD4FFF7DFFA401BB8424FF00300F5D90D
:10101000EBE700002DE9F04381B0002800F0858067
:1010200042F20008C4F202080446D8F800000D4657
:1010300000F0070088420CD2D8F8000020F007002A
:101040002843C8F80000D8F8000000F00700A842C4
:101050006BD1206841F204098107C4F2020917D557
:10106000410705D5D9F8001041F4E061C9F8001036
:10107000010705D5D9F8001041F46051C9F80010F6
:10108000D9F80010A26821F0F0011143C9F800104E
:10109000C00741D1D8F8000000F00700A8420CD9E1
:1010A000D8F8000020F007002843C8F80000D8F85E
:1010B000000000F00700A84237D12068410707D59B
:1010C000D9F80010E26821F4E0611143C9F800107A
:1010D000000708D5D9F80000216920F4605040EAE3
:1010E000C100C9F80000D9F8002002F00C0008285F
:1010F00041F20020C0F27A0050D144F2DA03C2F388
:101100008341C0F60003595CD2033BD440F6001083
:10111000C0F23D00484341E0606802280AD001283F
:101120002AD159F8041C890308D4012001B0BDE874
:10113000F08300BF59F8041C8901F6D5D9F80010D6
:1011400021F003010843C9F80000FFF73BFA064607
:1011500041F28837D9F80000616800F00C00B0EB6C
:10116000810F97D0FFF72EFA801BB842F2D90320E7
:1011700001B0BDE8F08300BF59F8041C8907D4D53D
:10118000DCE700BFD9F8002044F2C003C2F34042BC
:10119000C0F600039A5C4843B0FBF2F0D9F80010A7
:1011A00044F2C202C1F30311C0F60002515C40F2E6
:1011B000980220FA01F140F20400C2F20000006837
:1011C000C2F200021160FFF71DFE002001B0BDE871
:1011D000F083000040F2980041F20401C2F20000E6
:1011E000C4F202010068096844F2D202C1F302218C
:1011F000C0F60002515CC8407047000040F2980001
:1012000041F20401C2F20000C4F202010068096860
:1012100044F2D202C1F3C221C0F60002515CC840C0
:10122000704700002DE9F04182B0002868D00446E4
:10123000007841F20006C007C4F2020625D07068AB
:1012400000F00C0004281BD0706800F00C00082887
:1012500002D17068C00313D46068002800F0688170
:10126000B0F5A02F00F07C81B0F5803F00F07C81CC
:10127000306820F480303060306820F4802076E1DF
:101280003068800301D56068D0B32078800718D516
:10129000706810F00C0F07D0706800F00C00082880
:1012A0006ED17068C0036BD43068800702D52069A6
:1012B000012825D13068616920F0F80040EAC100BA
:1012C0003060207800071FD42078400732D4E569C9
:1012D00095B1706800F00C00082840F08F80012D57
:1012E0000ED07068216A00F480328A4208D1616AA7
:1012F00000F47010884203D1002002B0BDE8F081F4
:10130000012002B0BDE8F081A069002862D0002071
:10131000C4F242200121C0F88014FFF753F90546BA
:10132000706A800700F18C80FFF74CF9401B02289F
:10133000F6D92AE1F06910F0805808D1F06940F040
:101340008050F061F06900F080500090009847F202
:101350000007C4F200073868C00529D4386840F493
:1013600080703860FFF72EF9054600BF3868C00569
:101370001ED4FFF727F9401B6428F7D905E100BF09
:101380002069002840F20000C4F2422000F0828070
:1013900001210160FFF716F9054600BF306880079C
:1013A0003FF588AFFFF70EF9401B0228F6D9ECE0B5
:1013B000E068002800F08080052800F09780012870
:1013C00000F09880306A20F001003062306A20F02E
:1013D000040092E00020C4F242200021C0F88014F2
:1013E000FFF7F0F8054600BF706A80077FF56CAF25
:1013F000FFF7E8F8401B0228F6D9C6E00027C4F240
:10140000422700203866FFF7DDF8022D05460BD194
:101410003068800140F1BE80FFF7D4F8401B0228FD
:101420004FF00300F4D968E7306880017FF564AFBE
:10143000FFF7C8F8401B02284FF00300F4D95CE71F
:1014400040F29800C2F20000006844F6D351C1F2A5
:101450006201A0FB0101480A019000BF00BF019892
:10146000411E002801913FF42FAF00BF0198411E9B
:10147000002801913FF428AF00BF0198411E0028C9
:1014800001913FF421AF00BF0198411E0028019156
:10149000E4D119E700210160FFF794F8054600BF89
:1014A000306880077FF50DAFFFF78CF8401B0228EE
:1014B0004FF00300F4D920E7306A20F001003062D9
:1014C000306A20F004003062FFF77CF8054641F2F4
:1014D000883700BF306A800720D5FFF773F8401BBC
:1014E000B8424FF00300F5D907E700BF306A40F07B
:1014F00004003062306A40F001003062FFF762F8A9
:10150000054641F2883700BF306A800706D4FFF7EE
:1015100059F8401BB842F7D937E000BFB8F1000FC7
:101520007FF4D5AEF06920F08050F061CFE600BFC7
:10153000306820F480303060306820F480203060E3
:10154000FFF740F8054600BF306880037FF59DAE89
:10155000FFF738F8401B64284FF00300F4D9CCE6BD
:10156000306840F480203060306840F48030306073
:10157000FFF728F8054600BF306880033FF585AEC9
:10158000FFF720F8401B6428F6D9032002B0BDE81D
:10159000F08100BF206AB0F5803F05D17168A26874
:1015A00021F40031114371607168626A21F4741191
:1015B00010430843706001203866FFF703F80446C3
:1015C000306880013FF598AEFEF7FCFF001B022853
:1015D0004FF00300F4D990E6411E0020B0EB116FEC
:1015E0001CBF012070474EF21002CEF20002516083
:1015F0004EF62351CEF20001F0230B7007219060CC
:10160000116070477047000070470000704700008D
:1016100010B5016804460869800744BFC8685FEADE
:10162000807039D40869400744BFC8685FEA4070D9
:101630003ED40869000744BFC8685FEA007045D41B
:101640000869C00644BFC8685FEAC0604AD4086938
:10165000C0071CBFC8685FEAC07051D108690006A6
:1016600044BFC8685FEA006052D40869400644BFBE
:10167000C8685FEA406053D40869800646BFC868FE
:101680005FEA806010BD6FF0200220460A61BDE86D
:101690001040FFF7B9BF00BF6FF0020008610120E2
:1016A00020778869800743D02046FFF7AFFF45E0E9
:1016B0006FF00400086102202077886910F4407FF1
:1016C00040D02046FFF7A2FF42E000BF6FF00800C5
:1016D000086104202077C86980073DD02046FFF7C5
:1016E00095FF3FE06FF01000086108202077C8697F
:1016F00010F4407F3AD02046FFF788FF3CE000BF5F
:101700006FF001000861204600F03EF82168A5E76F
:101710006FF0800008612046FFF774FF2168A4E79E
:101720006FF040000861204600F03EF82168A3E712
:10173000204600F025F8204600F024F8216800201B
:1017400020776FE7204600F01BF8204600F01AF8DB
:101750002168002020776CE7204600F011F8204631
:1017600000F010F821680020207769E7204600F09B
:1017700007F8204600F006F821680020207766E789
:101780007047000070470000006842F60041C4F254
:101790000101884218BF704740F20010C2F20000F9
:1017A000416801314160704770470000002804BF64
:1017B0000120704710B5044690F83D0028B900207C
:1017C00084F83C00204600F05FF8242084F83D00B7
:1017D0002068D4E90212C36823F40053C36003698C
:1017E00023F440531A430261D4E904231143C2682D
:1017F000194341F20C639A431143C1604169A269E4
:1018000021F44071114343F60002C4F201029042F8
:10181000416103D0FFF7DEFC02E000BFFFF7EEFC02
:101820006268192148439100B0FBF1F048F21F5162
:10183000C5F2EB11A0FB01235A096FF0630302FB11
:101840000300322303EB0010A0FB0101F02303EAA5
:101850005113206803EB0212C1F34311114481605C
:10186000016921F490410161416921F02A0141613E
:10187000C16841F40051C16000202021206484F837
:101880003D1084F83E1010BD70B586B040F60004DF
:10189000C4F20104006804F5405100268842049611
:1018A00002D006B070BD00BF41F21800C4F20200C1
:1018B000016802AD41F480410160016801F480419A
:1018C00001910199016841F0040101600068294615
:1018D00000F00400019001984FF400700290022083
:1018E0000390032005902046FEF75CFD4FF48060D6
:1018F000CDE90206204629460496FEF753FD06B0C0
:1019000070BD0000FEE700002DE9F04383B00446FF
:10191000006899460368904643F48062026002685A
:101920000B9D42F48072026042690A9ED2070F4604
:101930001DD1711C11D0002E00F03681FEF742FE41
:10194000401BB04200F2328120684169C907F5D0DE
:101950000DE000BF4169C90709D14169C90706D136
:101960004169C90704BF41695FEAC171F2D007F05C
:10197000FE0707614169890738D44169721C01F487
:10198000806111D049BB002E00F03A81FEF71AFEAB
:10199000401BB04200F2368120684169890725D496
:1019A00041694905F2D518E0B9B9416989071DD4E3
:1019B0004169490511D44169890717D4416949052D
:1019C0000BD44169890711D44169490505D441699E
:1019D00089070BD441694905E7D5016841F40071D5
:1019E00001606FF48061416104200CE100210291EB
:1019F000014651F8142F02924A680292029A0A682C
:101A0000120620D4002E00F0AB80721C51D10A685F
:101A1000520500F1AD800A68120614D40A68520516
:101A200000F1A6800A6812060DD40A68520500F17A
:101A30009F800A68120606D40A68520500F1988051
:101A40000A681206E3D5B9F1010F45D04FEA182113
:101A50000161014651F8142F12063DD4002E00F00A
:101A60007F80721C2AD10A68520500F181800A68C1
:101A7000120631D40A6852057AD40A6812062BD4A9
:101A80000A68520574D40A68120625D40A685205F9
:101A90006ED40A681206E6D51EE000BFFEF792FD7E
:101AA000401BB04261D82068014651F8142F12063D
:101AB000C9D408684005F1D55AE000BF0868400560
:101AC00056D4FEF77FFD401BB0424ED82068014639
:101AD00051F8142F1206F1D55FFA88F10161014621
:101AE00051F8142F12061AD4D6B3721C33D10A68D7
:101AF00052053DD40A68120611D40A68520537D43B
:101B00000A6812060BD40A68520531D40A68120614
:101B100005D40A6852052BD40A681206E7D5016875
:101B2000002241F48071016020464FF001113346DC
:101B3000009500F007FA002850D02068006844E0C3
:101B4000FEF740FD401BB0420FD82068014651F817
:101B5000142F1206E3D408684005F1D508E000BF51
:101B60000868400504D4FEF72DFD202004E000BFE6
:101B70006FF480600860042000212022216384F833
:101B80003D2084F83E10226C1043206484F83C1001
:101B9000206C042843D12068016841F40071016081
:101BA000012003B0BDE8F083FEF70CFD00202021EA
:101BB000206384F83D1084F83E00216C41F0200140
:101BC0002164216884F83C000868C00544BF4FF4D4
:101BD00000702064032003B0BDE8F083206847F064
:101BE000010101610221C0F20101204632462B466B
:101BF00000F050FA002818BF012003B0BDE8F083C0
:101C0000FEF7E0FC202000212022216384F83D2003
:101C100084F83E10226C1043206484F83C100120AC
:101C200003B0BDE8F08300002DE9F04381B0044625
:101C3000006890460268099D42F480720260426921
:101C4000089E9946D2070F461DD1711C11D0002E57
:101C500000F0D280FEF7B6FC401BB04200F2CE800E
:101C600020684169C907F5D00DE000BF4169C90787
:101C700009D14169C90706D14169C90704BF416952
:101C80005FEAC171F2D007F0FE0101614169890785
:101C900038D44169721C01F4806111D049BB002E17
:101CA00000F0E880FEF78EFC401BB04200F2E480BA
:101CB00020684169890725D441694905F2D518E0B2
:101CC000B9B9416989071DD44169490511D44169F0
:101CD000890717D4416949050BD44169890711D493
:101CE0004169490505D4416989070BD44169490512
:101CF000E7D5016841F4007101606FF480614161D2
:101D00000420BAE000210091014651F8142F0092FE
:101D10004A680092009A0A6812061ED4002E00F04B
:101D20008580721C4DD10A68520500F187800A68CF
:101D3000120612D40A68520500F180800A68120661
:101D40000BD40A68520579D40A68120605D40A68C9
:101D5000520573D40A681206E5D5B9F1010F43D0D4
:101D60004FEA18210161014651F8142F12063BD4A5
:101D7000002E5BD0721C29D10A6852055ED40A6815
:101D8000120631D40A68520558D40A6812062BD4B8
:101D90000A68520552D40A68120625D40A68520508
:101DA0004CD40A681206E7D51EE000BFFEF70AFC15
:101DB000401BB0423FD82068014651F8142F12064C
:101DC000CBD408684005F1D538E000BF086840056D
:101DD00034D4FEF7F7FB401BB0422CD820680146F4
:101DE00051F8142F1206F1D55FFA88F10161002035
:101DF00001B0BDE8F08300BFFEF7E4FB0020202126
:101E0000206384F83D1084F83E00216C41F02001ED
:101E10002164216884F83C000868C00544BF4FF481
:101E200000702064032001B0BDE8F083086840051D
:101E300004D4FEF7C7FB202004E000BF6FF48060ED
:101E40000860042000212022216384F83D2084F8CA
:101E50003E10226C1043206484F83C10206C04284F
:101E600017D12068016841F400710160012001B0C0
:101E7000BDE8F083FEF7A6FB20200021202221638D
:101E800084F83D2084F83E10226C1043206484F8CE
:101E90003C10012001B0BDE8F083000070B503687C
:101EA000044653F8140F400737D40E46F1B1701CA6
:101EB00024D100BF1868400532D4186840072CD4DC
:101EC000186840052CD41868400726D418684005C7
:101ED00026D41868400720D41868400520D4186814
:101EE00040074FF0000048BF70BDE3E718684005A9
:101EF00016D4FEF767FB202016E000BF154600BF92
:101F0000186840050CD4FEF75DFB401BB042F2D8C8
:101F1000236853F8140F4007F2D5002070BD00BFAE
:101F20006FF480601860042000212022216384F86F
:101F30003D2084F83E10226C10432064012084F878
:101F40003C1070BD2DE9F04105461446DDF81880BF
:101F500001F47F002A681E46B0F5803F8FB241D160
:101F600050693840C01BB0FA80F04009A0427BD1D4
:101F7000701C2DD0002E7BD0FEF724FBA0EB0800B8
:101F8000B04277D8286840693840C01BB0FA80F06A
:101F90004009A042F0D00020BDE8F08150693840EF
:101FA000C01BB0FA80F04009A0425DD150693840B2
:101FB000C01BB0FA80F04009A04255D150693840AA
:101FC000C01BB0FA80F04009A0424FF000005FD182
:101FD00050693840C01BB0FA80F04009A042DDD003
:101FE00042E000BF90693840C01BB0FA80F0400961
:101FF000A04239D1701C1FD0D6B300BFFEF7E2FA61
:10200000A0EB0800B04235D8286880693840C01B72
:10201000B0FA80F04009A042F0D00020BDE8F08185
:1020200090693840C01BB0FA80F04009A0424FF0E0
:10203000000018BFBDE8F08190693840C01BB0FABD
:1020400080F04009A0420FD190693840C01BB0FA1F
:1020500080F04009A04207D190693840C01BB0FA17
:1020600080F04009A042DBD00020BDE8F08100BF35
:10207000FEF7A8FA00202021286385F83D1085F896
:102080003E00296C41F02001296485F83C000120C4
:10209000BDE8F081F0B581B0044600681D46436993
:1020A0008FB203EA0701B94202D1002001B0F0BDAE
:1020B00041691646013201F480610FD059BB9EB3CD
:1020C000FEF780FA401BB04230D8206841693940A1
:1020D000B942EAD041694905F2D51CE0D9B9416954
:1020E0003940B942E1D04169490514D441693940C8
:1020F000B942DAD0416949050DD441693940B94244
:10210000D3D04169490506D441693940B942CCD0A0
:1021100041694905E3D5016841F4007101606FF43C
:1021200080614161042002E0FEF74CFA202000218A
:102130002022216384F83D2084F83E10226C104355
:10214000206484F83C10012001B0F0BD2DE9F0417D
:1021500084B04FF00008642501270DF10F06D0214F
:102160006B22012304468DF80F80CDE900670295AC
:10217000FEF706FD07208DF80F002046D02119221A
:102180000123CDE900670295FEF7FAFC2046D02135
:102190001C2201238DF80F80CDE900670295FEF720
:1021A000EFFC2046D0211B2201238DF80F80CDE9C2
:1021B00000670295FEF7E4FC002004B0BDE8F08162
:1021C0002DE9F04F9DB00F460E210DF166026426F9
:1021D000CDE90021D0213B2201230296FEF7B4FA7B
:1021E000BDF86600398800BAC1EB1040BDF8681030
:1021F0007A8809BAC2EB1146BDF86A10BA8809BAE2
:10220000C2EB1145BDF86E10FA8809BAC2EB114B4A
:10221000BDF870103A8909BAC2EB114ABDF87210C4
:102220007A8909BAB881BDF86C80C2EB114900B255
:10223000FE813D82A7F830B0A7F832A0A7F834900D
:1022400001F0CCF80024C3F610740022234601F0FC
:1022500067F9C7E9060130B201F0C0F80022234651
:1022600001F05EF9C7E9080128B201F0B7F80022D1
:10227000234601F055F9C7E90A0198FAB8F001F0D0
:102280007BFD0021C4F2AA3101F0B4FC41F6B86133
:10229000C4F2122101F022FC38650FFA8BF001F034
:1022A0009DF846F20004C4F260040022234600F0C8
:1022B000FFFEC7E90E010FFA8AF001F08FF8002245
:1022C000234600F0F5FEC7E910010FFA89F001F08E
:1022D00085F80022234600F0EBFEC7E91201FEF765
:1022E00071F940F2A024C2F200042168401A01F002
:1022F0008CF844F20003C4F28F03002200F0D8FEF1
:10230000CDE91510FEF75EF9B7F90C10B7F91020FA
:10231000494302FB02112060084601F05FF800F01B
:10232000E5FD0022002304460D4601F039FCA8B962
:10233000B7F90E0001F052F822462B4600F0B8FE25
:1023400000F0F6FB4CF2F8124AF2DC53C1F66322BD
:10235000C4F24C0301F0E4F8139102E00020139062
:1023600000201490B7F90C00B7F91040404201F07A
:1023700035F8054620460E4601F030F802460B4679
:102380002846314600F0E4FC4CF2F8124AF2DC53E5
:10239000C1F66322C4F24C0301F0C2F848F2000314
:1023A000CCF2560300228346894601F00EFC1797B3
:1023B00048B9D7E9180148F20003C4F256030022D5
:1023C00001F0FCFB98B948F20003C4F256035846EA
:1023D0004946002201F000FC80B9D7E9180148F213
:1023E0000003CCF25603002201F0EFFB30B940F2BB
:1023F0005000C2F20000C0E906B9FDE040F250060C
:10240000C2F20006D7E91001D6E90823CDE90D2371
:1024100001F076FA169DCDE90BB9DDF8549002462D
:10242000D6E906470B462846494601F079F8224688
:102430003B4600F081FDD6E91023D6E90C740890E4
:1024400007912846494604930F92CDE9117401F093
:1024500067F83A46234601F053FAD6E90EA85246E9
:10246000434601F04DFA96E88C000A97F768099701
:1024700000F062FD0246D6E90A470B462846494667
:1024800001F04EF822463B4600F056FDDDF83CB028
:10249000049E1890109189F0004128465A46334610
:1024A00001F03EF8DDE9112307460C4600F044FD3B
:1024B00012900691384621465246434600F03CFDB4
:1024C000119088460591DDE909102A464B4601F036
:1024D00027F85A46334600F02FFD0A9040F250008C
:1024E000C2F20000189E109FD0E9042309913046E3
:1024F000394600F021FD04460D4630463946224655
:102500002B4600F0D5FD8146039011988A4641463E
:1025100022462B4600F0CCFD089E079F8046049083
:102520000F91DDE90B0132463B4601F0E9F9044623
:102530000D464846514622462B4600F0F1FF3246F2
:102540003B4600F0F9FC894640F250070F9983465C
:10255000C2F20007404622462B46C7E906B900F002
:10256000DFFFDDE90D2300F0E7FCB846039F189E6E
:10257000109DC8E908013846514632462B4600F006
:10258000CFFF02460B46304629462E4601F0B8F9E9
:102590004546C5E90A015146129CDDF818A03846A7
:1025A000179F2246534600F0BBFF02460B462046CB
:1025B000514601F0A5F9049CDDF83C80189AC5E964
:1025C0000C0120464146334600F0AAFF02460B4666
:1025D0001198059901F094F9129AC5E90E01204667
:1025E0004146534600F09CFF02460B46DDE90910C8
:1025F00001F086F9C5E9100148F2000329F0004115
:10260000C4F2560358460022C7E918B901F0E4FAAB
:102610000246D7E90E0140F20806002A04BF81F005
:102620000041C7E90E01C2F20006D6E90823CDE950
:10263000112301F065F9DDF858B0159F0246D6E97F
:1026400006450B465846394600F06AFF22462B469F
:1026500000F072FCD6E910A3D6E90C4510900F915A
:10266000584639465246CDE90D45984600F058FF88
:1026700022462B4601F044F9D6E90E934A460C93C4
:1026800001F03EF996E82C000995F568089500F0F0
:1026900053FC0246D6E90A560B465846394600F026
:1026A0003FFF2A46334600F047FC0546189187F065
:1026B00000415846524643465446464600F030FFD5
:1026C000DDE90D2380468A4600F036FC0C9BCDE9FF
:1026D0000D10404651464A4600F02EFC80460C90B4
:1026E0008A460B91DDE908105A463B4600F018FF78
:1026F0002246334600F020FC169040F20800C2F259
:102700000000189CD0E904231591284621460A951B
:1027100000F012FC07460E46284621463A4633464C
:1027200000F0C6FC83468946404651463A46334649
:1027300000F0BEFC109E0F9C82468846DDE9131017
:102740003246234601F0DCF805460F465846494616
:102750002A463B4600F0E4FE3246234600F0ECFBFE
:1027600040F20804C2F20004CDE91301C4E90601F5
:10277000504641462A463B4600F0D2FEDDE9112391
:1027800000F0DAFB0A9F189EC4E908015846494642
:102790003A46334600F0C4FE02460B463846314600
:1027A00001F0AEF8C4E90A014946DDF838900D9D04
:1027B00058464A462B4600F0B3FE02460B464846B2
:1027C000294601F09DF840F20804C2F20004C4E971
:1027D0000C01504641463A46334600F0A1FE0246FF
:1027E0000B46DDE90B1001F08BF8C4E90E015046F1
:1027F00041464A462B4600F093FE02460B46DDE971
:10280000151001F07DF8C4E910011798DDE91321D6
:10281000C0E916211DB0BDE8F08F00002DE9F0439E
:1028200085B041F21800C4F20200016840F6004889
:1028300041F0100101600168C4F2010801F01001CB
:1028400001910199016808F5806541F0200101605E
:102850000168002201F020010191019901684FF403
:10286000005641F00401016001684FF0000901F0D9
:10287000040101910199016841F0080101600068BB
:102880004FF4005100F00800019001982846FDF730
:1028900093FE019601AE0124022728463146CDE978
:1028A00002490497FDF77EFD40463146CDE90144DB
:1028B000CDE90397FDF776FD40463146CDE9017439
:1028C000CDE90397FDF76EFD05B0BDE8F08300008C
:1028D00080B540F2781045F20041C2F20000C4F227
:1028E000000148F2A06200234FF4804CC0F20102C4
:1028F00080E80E00C0E9033CC0E90533C0E90733B6
:10290000FDF766FE002808BF80BDBDE88040FDF7EA
:102910002FBD000080B540F25C2043F60001C2F2FA
:102920000000C4F2010100234FF00C0C4FF41642DA
:1029300080E80E00C0E90333C0E905C3C361FEF7B8
:1029400035FF002808BF80BDBDE88040FDF710BD01
:10295000FEE70000FEE7000070470000704700003F
:10296000FEF72EBAB0B594B000240120CDE90F4493
:10297000CDE90D440A900E904FF4E0104FF48031F1
:10298000022513900AA8CDE90344CDE90144CDE91D
:102990000B14CDE91151FEF745FC002818BFFDF7D7
:1029A000E7FC0F20CDE905054FF48060CDE9080470
:1029B00005A802210794FEF72DFB002818BFFDF79C
:1029C000D7FC022001904FF40040039001A8FEF7CD
:1029D0009BFA002818BFFDF7CBFC14B0B0BD000077
:1029E0007047000040F2CC10C2F20000FEF710BEAB
:1029F00040F21420C2F20000FEF70ABEFEE700001B
:102A0000FEF7ECF9FFF7AEFFFFF708FFFFF760FFF7
:102A1000FFF780FF40F27814C2F200042046FFF76F
:102A200095FB40F21015C2F200052846FDF71AFC8E
:102A3000C820FDF7A3FC00BF20462946FFF7C0FBD6
:102A4000FAE7490050EAC12018BF04204A0D18BF18
:102A500040F0010040F2FF72B2EB515F08BF40F05E
:102A60000200012808BF052070472DE9F0414F1EE4
:102A700000EBC7010446D1E9000115461E4637F0B8
:102A800006020DD02A46334600F04AFD7F1E04EBB5
:102A9000C703D3E9002300F04FFA37F00602F1D163
:102AA000022F25D0042F13D0062F18BFBDE8F081C8
:102AB0002A46334600F034FDD4E90A2300F03CFAFC
:102AC0002A46334600F02CFDD4E9082300F034FAFE
:102AD0002A46334600F024FDD4E9062300F02CFA00
:102AE0002A46334600F01CFDD4E9042300F024FA02
:102AF0002A46334600F014FDD4E9022300F01CFA04
:102B00002A46334600F00CFDD4E90023BDE8F0412D
:102B100000F012BA012201F03ABA00F00DBA00003A
:102B2000024A0020110701F032BA000001FDFFFF48
:102B30002DE9F84F04460D4621F0004000917349FD
:102B4000814211DC7249884201DC06D12CB1204659
:102B50002946BDE8F84FFFF7DDBF6E48002DCCBF1A
:102B60006D496E49BDE8F88F6D49814211DD6D49AF
:102B70008142D8BF4FF0FF366DDD20462946FFF772
:102B800060FF042808BFFFF7CBFF20462946BDE8B9
:102B9000F88F6549654F25F00045814233DD644972
:102BA000814219DD002632464FF0804320462946F7
:102BB00000F0C2F980468A4601222046294601F0EB
:102BC000E6F900223B4600F09BFE4246534600F0E9
:102BD0006FFA04460D463EE001260022BA463B4607
:102BE0002046294600F0A8F980460F4600225346A9
:102BF0002046294600F084FE42463B4600F058FA43
:102C000004460D4627E04B4981421BDDDFF828A131
:102C10000226002253462046294600F081FC00226D
:102C20003B4600F089F980460F4600225346204675
:102C3000294600F065FE42463B4600F039FA04465C
:102C40000D4608E0032622462B4600203B4900F0B3
:102C50002FFA04460D4622462B461046194600F030
:102C60005FFC8B46824602460B4600F059FC074645
:102C70000246334888460B4606217844FFF7F5FEA6
:102C800052465B4600F04CFC82462E488B463A4644
:102C9000434605217844FFF7E8FE3A46434600F0F4
:102CA0003FFC02460B46002E504659460CDA00F017
:102CB00043F922462B4600F033FC01B022462B4656
:102CC000BDE8F04F00F02ABD00F036F922462B4651
:102CD00000F026FC1C4A7A4402EBC603D3E9002329
:102CE00000F00EFE22462B4600F00AFE174A7A44F8
:102CF00002EBC603D3E9002300F010FD009A002A7E
:102D0000B8BF81F00041BDE8F88F0000000010441A
:102D10000000F07F182D4454FB21F93FFB21F9BF3F
:102D20000000DC3F0000203E0000F33F0000F03FC9
:102D30000000E63F008003400000F83F0000F0BFC5
:102D40000A140000C8130000661300002E130000D0
:102D50002DE9F04D9446CCF1000423F000464CEAF6
:102D60000404594F46EAD4749A46884621F000423A
:102D7000BC4206D8454240EA050442EAD474BC424B
:102D800004D9BDE8F04D6246FFF7C7BEAAF1405531
:102D9000A5F17F6555EA0C040BD0022404EAAA745D
:102DA0004A4DDFF82CE144EAD87452EA000B04D013
:102DB0000CE0BDE8F04DFFF7BBBE002C14BF012CAA
:102DC000BDE8F08D022C30D0032C32D056EA0C0B2B
:102DD0000AD0BE4220D1BA4209D126F0804622F064
:102DE00080423346114617E000291ADB25E0DFF860
:102DF000E4B0FB44002C04BFDBE90001BDE8F08D2A
:102E0000012C02BFDBE9000181F00041BDE8F08D3B
:102E1000022C0AD0032C0CD0BA4212D1B8F1000F08
:102E20000BDA2A482C49BDE8F08D28462B49BDE82D
:102E3000F08D28467146BDE8F08D24482849BDE84C
:102E4000F08D921B12153C2AC4BF204F244E10DC7B
:102E5000BAF1000FBEBF12F13C0F00273E4608DB5F
:102E6000624600F025F921F00041FFF761FE0746B8
:102E70000E4694B1012C08BF86F000460DD0194AC9
:102E8000194B022C3846314615D000F039FD2A4640
:102E9000BDE8F04D114B00F033BD0022134638461B
:102EA000314600F05FFA04BF0220FDF795F938467D
:102EB0003146BDE8F08D00F023FD2A46BDE8F04D17
:102EC000064B00F02BBC00000000F07F182D44548E
:102ED000FB2109C0C2120000FB21F9BFFB21094000
:102EE000FB21F93F075C143326A6A13C2DE9F041F4
:102EF00006460F4600F01EFC041E0D4618BF0120BA
:102F0000284320F00040C0F17F6000F1E040C00F96
:102F10000ED0301C18BF0120384320F00040C0F113
:102F20007F6000F1E040C00F04BF0120FDF754F9BD
:102F300020462946BDE8F08110B591EA030F48BF4D
:102F400083F0004300F1E484841A71EB030C05D292
:102F5000121943EB0C03001B61EB0C014FEA1154F7
:102F6000A4EB135CDFF81CE11EEA430F18BF9EEAD6
:102F7000445F00F0748021EA045123EA0E0343F415
:102F80008013DCF1200E32D322FA0CFE10EB0E007F
:102F900023FA0CFE41EB0E01CCF1200E03FA0EFEDB
:102FA00010EB0E00CCF1200E51F10001B1F5801FA5
:102FB00032D201EB045112FA0EF2BDE8104058BFB4
:102FC0007047401C38BF5FEA420218BF70470028B4
:102FD00014BF20F0010041F100014FEA410313F555
:102FE000001F38BF7047A1F1C04100F091BB012A1A
:102FF00043EB0302ACF1200CDCF11F0E32BF4FF0AB
:10300000000E23FA0CF310EB030041EB0451B4EB78
:10301000115FD0D0A1EB045101F58011490801EBFB
:1030200004515FEA30000ED350F1000038BF12FAAD
:103030000EFE08D1BDE81040C9E7401C38BF5FEA6A
:103040004202CAD1C3E7BDE810404FEA410313F57D
:10305000001F38BF7047A1F1C04100F059BB9EEA84
:10306000445F08D011EA5E0FBDE8104004BF01F0D4
:10307000004100207047BDE8104070B500F0FAFA3A
:1030800064FBBE3E0000E0FF02494FF0000000F08C
:103090004CBF00BF0000F87F491058BFC1F140414C
:1030A0005B1058BFC3F140438B42EFF30080704781
:1030B0002DE9C04130B4DFF8A4C23CEA111418BFB6
:1030C0003CEA131400F0ED801CEA111481EA0305B8
:1030D00044EAD57418BF1CEA131500F0C880A4EBAD
:1030E000050404F17F7404F500344FF0004545EA0F
:1030F000C12145EAC32341EA505143EA52534FEA02
:10310000C0204FEAC222994208BF904200F09D8041
:103110004FEA13650FF24416765D4FEA134506FB3E
:1031200005F7C7F1807706FB07F74FEAD737A7FB0C
:1031300003687642A7FB06CEC8F5803838BFA8F1F1
:10314000010807FB08E6A6FB028C4FF0000EE6FB29
:1031500003CEDCF1000CCEF1004E38BFAEF1010E13
:10316000A6FB0C584FF00007E6FB0E87A1FB08C634
:10317000A0FB07CE16EB0E064FF0000545F100054B
:10318000E1FB076515F1E04E7EBFA4F580345FEAF0
:1031900046066D4116F1800745F100054FEA1727F5
:1031A00047EA05674FEA15254FEA0666A6F1DE46AF
:1031B000B6F1805F20D9384605EBC47124F0010CCC
:1031C00001EB0C11BCF1FE6F02D8F0BCBDE8008130
:1031D00024425CBF01F5801E9EEAC47F02D4F0BC8D
:1031E000BDE80081244200F13980A1F1C041F0BC6A
:1031F000BDE8004100F08CBA4FEAD02040EA4150CF
:103200004FEAD1214FEAD22242EA43524FEAD32376
:10321000A7FB028607FB036605FB02661EEA0E0F8C
:1032200058BFA6EB0056B6EB00564FEA520E4EEAD8
:10323000C37E18EB0E0E56EB530EBCD518EB0208EE
:103240005E417F1C55F10005B5E74FF480154FF046
:1032500000074FF000064FF00008ACE701F1C04155
:1032600001F000414FF00000F0BCBDE800810CEA25
:10327000131511EA0C1F00D00CE013EA0C1F00F02C
:1032800026804FF0000081EA030101F00041F0BC0C
:10329000BDE80081F0BCBDE8004181EA030100F017
:1032A00037BAF0BCBDE8004170B500F0E3F900BFEB
:1032B000097EFC3E00F007B84FF0000081EA0301F0
:1032C00001F00041704781EA030100F021BAF0BC2F
:1032D000BDE8004122494FF000007047FFFDFBF9B7
:1032E000F7F5F4F2F0EEEDEBE9E8E6E4E3E1E0DE39
:1032F000DDDBDAD8D7D5D4D3D1D0CFCDCCCBCAC8AB
:10330000C7C6C5C4C2C1C0BFBEBDBCBBBAB9B8B7D1
:10331000B6B5B4B3B2B1B0AFAEADACABAAA9A8A8C4
:10332000A7A6A5A4A3A3A2A1A09F9F9E9D9C9C9B92
:103330009A9999989797969595949393929191903D
:103340008F8F8E8E8D8C8C8B8B8A898988888787CE
:103350008685858484838382828181800000FF0743
:103360000000F87F51EA030C17D41CF5801F58BFEA
:10337000BCF5801F00F10680994218BF704708BF56
:103380009042704707D711F5801F58BF13F5801F73
:1033900019D499427047894270471CF5801F08D59F
:1033A000BCF5801FF7D58B4218BF704708BF82421B
:1033B00070474FF4001C1CEB410F38BF1CEB430F50
:1033C00001D28B42704770B500F054F99224490045
:1033D0004FF000514FF08053FFF75EBE10F00042F7
:1033E00048BF4042B0FA80F310FA03F10AD0C3F1AB
:1033F0001D0303F5806302EB03524FEA415002EBD9
:10340000D12170474FF000007047B0FA80F310FAF6
:1034100003F10AD0C3F11D0303F580634FEA0352A1
:103420004FEA415002EBD12170474FF00000704746
:1034300051EA030C17D41CF5801F58BFBCF5801F40
:1034400000F10680994218BF704708BF904270474C
:1034500007D711F5801F58BF13F5801F19D4994263
:103460007047894270471CF5801F08D5BCF5801F46
:10347000F7D58B4218BF704708BF824270474FF4A0
:10348000001C1CEB410F38BF1CEB430F01D28B42D9
:10349000704770B500F0EEF8922449004FF080516B
:1034A0004FF00053FFF7F8BD51EA030C17D41CF599
:1034B000801F58BFBCF5801F00F10680994218BFDD
:1034C000704708BF9042704707D711F5801F58BF5B
:1034D00013F5801F19D499427047894270471CF533
:1034E000801F08D5BCF5801FF7D58B4218BF7047E9
:1034F00008BF824270474FF4001C1CEB410F38BFDD
:103500001CEB430F01D28B42704770B500F0B2F84C
:10351000922449004FF000514FF08053FFF7BCBD9B
:1035200070B5DFF848C11CEA111E1EBF1CEA131556
:103530009EEA0C0F95EA0C0F00F06F8081EA0304FD
:103540004EEAD47EAE4421EA4C1123EA4C1341F4F6
:10355000801143F48013AEF17F7EA1FB024CA0FBEF
:103560000365361955EB0C05A1FB034C4CF1000328
:10357000A0FB021C16EB0C06654153F10003094247
:1035800018BF46F0010613F4007F0BD14FEA033158
:103590004FEA053041EA155140EA165034036FF006
:1035A00003020AE04FEAC3214FEAC52041EA555120
:1035B00040EA5650F4026FF0020202EB2E4201EB99
:1035C000025585EACE710AD05FEA440C18BF24F098
:1035D000004450F1000041F1000120EAD47040F2B3
:1035E000FE7C624500D270BDA84214BF4FF08044FB
:1035F0004FF04044002E08BF0024BEF1806FA8BFEA
:10360000A1F1C041BDE8704080F2828001F1C0416B
:1036100001F000414FF0000070470CEA13159EEADC
:103620000C0F18BF95EA0C0F06D081EA030E4FF07D
:1036300000000EF0004170BD00F01CF88900013E52
:1036400000F007B800F009B84FEA430C5FEA5C5C91
:1036500008D081EA030100F05BB84FEA410C5FEA51
:103660005C5CF6D102494FF0000070470000FF0794
:103670000000F87F0EF1020E2EF0030E5EF8046BD0
:10368000364205D4012A43EB030515F5001F12D875
:10369000012841EB010C1CF5001F0CD80ED14FEA9C
:1036A000D17C0CEB4C0C0CF1020C15F5001F08BF83
:1036B0004CEBD37C04E04FF0080C01E04FEAD37CE4
:1036C0000CEB4C0526FA05F606F00706B6F1040CDD
:1036D00006D20EEB860CBDE870404CF0010C604742
:1036E000DFE80CF0090B02024FF00041A1F50021C8
:1036F0004FF0000070BD19461046012851EB01043F
:1037000018BFD4F5001484BF002001F0004170BD43
:103710000808A0F500114FEA3101704710B591EA91
:10372000030F81F000413FF50FAC83F0004300F040
:10373000EFB800002DE9F04101F5801CBCF5001F39
:10374000C0F2C3804FEA115C21EA0C5141F48011B0
:103750000CF1FD0C5FEA5C0C0CF5C07C01D3400061
:103760004941890241EA905187023BA48E0EA45D33
:103770000A0C04FB04F602FB06F6C6F14046A4FB65
:103780000662F60D46EA422606FB06F4A4FB012378
:103790005242C3F1404338BF5B1EA6FB02420024E5
:1037A000E6FB0324D20B42EA4446A6FB0623A1FB18
:1037B00002E2A3FB07E4A4184FF0000252F100025A
:1037C000E3FB01426442C2F1404E38BFAEF1010E4C
:1037D000A6FB04234FF00002E6FB0E32A2FB0346D9
:1037E000B6194FF0000454F10004E2FB0264A1FB9F
:1037F00006E6A4FB07E816EB08064FF0000858F1B0
:103800000008E4FB01687642C8F1405838BFA8F1CF
:103810000108A2FB06E4A3FB08E52D194FF0000404
:1038200054F10004E2FB0854A1FB05E6A7FB04E801
:1038300018EB06084FF0000656F10006E1FB04867F
:1038400018F1200556F10006A80940EA8660B10982
:10385000A8F11B0808F03F08B8F10A0F1CD901EBCA
:103860000C51BDE8F08100BFFCF5EEE8E2DDD8D3F5
:10387000CFCBC7C3C0BDB9B6B4B1AEACA9A7A5A3E1
:10388000A19F9D9B9A9896959392908F8D8C8B89F2
:103890008887868584838281A0FB006800FB01F213
:1038A00008EB4208B8EB872807D5341858EB010419
:1038B000D5D5401C51F10001D1E7341A78EB010451
:1038C000CDD4401E71F10001C9E75FEA4C0C5FEAFC
:1038D0009C5C0DD105D301F000414FF00000BDE824
:1038E000F081BDE8F04170B5FFF7C4FE6DDBFFBEAF
:1038F000BDE8F04101494FF0000070470000F87F3B
:1039000010B591EA030F48BF83F000433FF51CABAD
:10391000841A71EB030C07D28CF0004C121943EBA4
:103920000C03001B61EB0C014FEA1154A4EB135C78
:10393000DFF8A4E11EEA430F18BF9EEA445F00F0DF
:10394000B48021EA045123EA6E035242C3EB6E03B2
:1039500038BF5B1EDCF1200E25D322FA0CFE10EBE3
:103960000E0043FA0CFE41EB0E01CCF1200E03FADF
:103970000EFE10EB0E00CCF1200E51F1000129D407
:1039800001EB045112FA0EF2BDE8104058BF704727
:10399000401C1CBFB2F1004F704700280CBF491CEF
:1039A00020F00100704712EB020E43EB030218BF38
:1039B0004FF0010E4EEA4202ACF1200CDCF11E0E7B
:1039C00056D943FA0CFE10EB0E00CCF11E0E51F14D
:1039D000FF31D5D50EF1010E12FA0EFE404141EB3A
:1039E000010101EB445C5FEA5C5C10D901EB04511E
:1039F00010EBDE7038BFBEF1004FBDE8104018BFBD
:103A0000704700280CBF491C20F00100704734D2D9
:103A10004FEAD42C24F4006411F500111BD0B1FA44
:103A200081F20B3AA41AA41ED2F12003914030FA7D
:103A300003F31943904001EBCC7101EB0451002CCE
:103A4000BDE81040A8BF704701F1C04101F000413E
:103A50004FF000007047B0FA80F310FA03F102D182
:103A6000BDE810407047E41A173C4805C90AE2E770
:103A700001EB0451BDE81040704749104FEA300097
:103A800001EB0451BDE8104002E04FF00001704727
:103A90004A0008BF0042F8D0B2F5001F28BF7047A7
:103AA00001F000414FF0000070479EEA445F07D0EC
:103AB00011EA5E0FBDE8104004BF002100207047EE
:103AC000BDE8104070B5FFF7D5FD00BF40DFF63E02
:103AD000104683F0004170470000E0FF90EA010FBC
:103AE00048BF81F0004100F1B281421A3CBF801A08
:103AF00089184FEAD052A2EBD1534FF07F4C1CEA09
:103B0000410F18BF9CEA026F00F03B804FF0004C61
:103B10004CEA00204CEA012121FA03FC10EB0C0CCA
:103B20001ED202F1FF325FEA1C2040EBC25038BFC8
:103B300070471CF07F0F4FEA400C18BFBCF17F4F5D
:103B400038BF7047C3F12003994008BF20F001003F
:103B5000BCF17F4F38BF7047A0F1C04000F06AB998
:103B60004FEA3C00000A40EBC25028BF1CF0FF0F98
:103B70004FEA400CE6D018BFBCF17F4F38BF70470A
:103B8000EAE79CEA026F05D010EA5C0F08BF00F07C
:103B90000040704710B500F007F900BF64FBBE3E5F
:103BA00010B5FFF7DFFB0CBF0120002010BD10B5E2
:103BB000FFF7D8FB14BF0120002010BD10B5FFF7A0
:103BC00037FC8CBF0120002010BD10B5FFF730FC82
:103BD0002CBF0120002010BD10B5FFF765FC94BF7D
:103BE0000120002010BD10B5FFF75EFC34BF01209E
:103BF000002010BD4FF47F0C1CEAD0121EBF1CEA3F
:103C0000D11392EA0C0F93EA0C0F00F0858090EA32
:103C1000010F48BF42F4807240F4000C41F40000F0
:103C20002CF07F4120F07F4000B5A2EB03028142DF
:103C30000FF2081CACEB504E9EF800E0C0F1000003
:103C40004FEA4E0E00FB0EFC38BF49004FEA2C1C19
:103C50000CFB0EF34FEACE1E0EEB635E4FEA112C07
:103C60000EFB0CFC4FEAC1214FEA1C5300FB031171
:103C700002F5FA024FEA112C0EFB0CFC4FEA01315F
:103C80004FEADC4C00FB0C1142EB2242C14228BF40
:103C900009184CEB03335DF804EB10EB410143EBE7
:103CA000C250B2F57C0F38BF704729D512F0F00F23
:103CB0001CBF00F1C04000F00040704700818283CB
:103CC0008485868788898B8C8D8E8F91929395962B
:103CD00097999A9C9D9FA0A2A3A5A7A8AAACAEB0B5
:103CE000B2B3B5B7B9BCBEC0C2C5C7C9CCCED1D4BA
:103CF000D7D9DCDFE2E6E9ECF0F3F7FAFE000000EA
:103D00004FEA400C0CF1807CBCF17E4F28BF70471D
:103D1000B0F1C04000F08EB80CEAD11390EA010F68
:103D200048BF42F48072624538BF634507D213F43E
:103D30007F0F16D080EA010000F00040704710B5F8
:103D400000F032F8097EFC3E00F005B880EA010080
:103D500000F00040704780EA010000F0004000F0F1
:103D600069B812F47F0F04BF0248704780EA01006F
:103D700000F060B80000C07F10F0004148BF404232
:103D8000B0FA80F310FA03F2C3F19D030BD051EAAD
:103D9000C35101EB1220530638BF704700F10100F8
:103DA00008BF20F0010070470EF1020E2EF0030E46
:103DB0005EF8044B244204D44FEA4102B2F17F4F33
:103DC00011D84FEA4003B3F17F4F0CD80ED14FEA20
:103DD000D07C0CEB4C0C0CF1020CB2F17F4F08BF05
:103DE0004CEBD17C04E04FF0080C01E04FEAD17CB1
:103DF0000CEB4C0324FA03F404F00704B4F1040CB4
:103E000006D20EEB840CBDE810404CF0010C60476C
:103E1000DFE80CF0070802024FF00040A0F5800038
:103E200010BD0846420018BFD2F1807288BF00F072
:103E3000004010BDFF2141EAD050C005704700008E
:103E400090EA010F48BF81F000413FF54EAE421AA3
:103E500004D882F00042A0EB020011444FEAD05295
:103E6000A2EBD1534FF07F4C1CEA410F18BF9CEAE4
:103E7000026F4AD04FF0004C4CEA00204CEA01217E
:103E800021FA03FCB0EB0C0C0FD412F0FE0F36D06D
:103E90005FEA4C001DD5001240EBC25038BF70479E
:103EA0001CF03F0F18BF70470BE05FEA1C20A2F127
:103EB000010240EBC25038BF70471CF07F0F18BFA3
:103EC0007047C3F12003994014BF401E20F0010049
:103ED00070474FEA1223800808BF7047B0FA80FC91
:103EE000A2EB0C02CCF1280C60FA0CF093EA122F32
:103EF00004BF00EBC25070474FEAC3707047130A0B
:103F00005FEADC1008BF7047F6E79CEA026F04D056
:103F100010EA5C0F08BF0020704710B5FFF744FFA0
:103F200040DFF63E81F0004070470CF00F03092B94
:103F300008BF082000F059800A2B0BD0082B18BFAF
:103F4000704708BF1CF0400F0AD04FF000004FF040
:103F5000000170471CF0400F18BF4FF00040704741
:103F60001CF0100F08D000F07F4220F0704342EAAE
:103F7000D3014FEA4370704700F0604021F07F4268
:103F800042EA000201F07F4040EA727070474FF051
:103F9000FF0C4CF4E06C1CEA11531CBF9CEA030CB0
:103FA0009445C2BFDA4201EB02517047002B0DD09D
:103FB000BCF1000F0FD001F00041002AA4BF41F076
:103FC000E04141F07F614FF00000704701F0004197
:103FD0004FF00000704750EA01334FF09B0C18BFC0
:103FE0004CF0806C7FF450A870471CF4801F11D0F7
:103FF0001CF4E02F03D06FEACC31490070474FF03A
:104000004050EFF3008222F0704242EA000282F355
:10401000008870474FF0000070470000000000006B
:104020004FBB610567ACDD3F182D4454FB21E93FD0
:104030009BF681D20B73EF3F182D4454FB21F93FBF
:10404000E2652F227F2B7A3C075C143326A6813C45
:10405000BDCBF07A8807703C075C143326A6913CF0
:10406000C4EB98999999C9BF711623FEC671BCBF5C
:104070006D9A74AFF2B0B3BF9AFDDE522DDEADBFC4
:104080002F6C6A2C44B4A2BF0D5555555555D53FDC
:10409000FF8300922449C23F6E204CC5CD45B73FF7
:1040A000513DD0A0660DB13FEB0D76244B7BA93F6F
:1040B00011DA22E33AAD903F00000000000000005A
:1040C00001020000000000000000010203040607D6
:1040D00008090000000001020304020304050607AA
:1040E00008090A0B0C0D0E0F1010000010410008FB
:1040F00000000020A000000028010008B0410008D6
:10410000A000002008080000440100080000000092
:104110000100000010000000000000E04D62503F70
:10412000000000C07493683F000000E051B89E3F5B
:10413000000000000000000000000000000000007F
:10414000000000000000000000000000000000006F
:10415000000000000000000000000000000000005F
:10416000000000E04D62503F000000C07493683FC3
:10417000000000E051B89E3F000000000000000079
:10418000000000000000000000000000000000002F
:10419000000000000000000000000000000000001F
:1041A00000000000000000000024F40000000000F7
:04000005080000ED02
:00000001FF
